{
  "_format": "hh-sol-artifact-1",
  "contractName": "Hello",
  "sourceName": "contracts/Hello.sol",
  "abi": [
    {
      "inputs": [
        {
          "internalType": "uint256",
          "name": "_total",
          "type": "uint256"
        }
      ],
      "stateMutability": "nonpayable",
      "type": "constructor"
    },
    {
      "anonymous": false,
      "inputs": [
        {
          "indexed": false,
          "internalType": "address",
          "name": "onw",
          "type": "address"
        },
        {
          "indexed": false,
          "internalType": "uint256",
          "name": "result",
          "type": "uint256"
        }
      ],
      "name": "HelloReduceResult",
      "type": "event"
    },
    {
      "inputs": [],
      "name": "getHelloTotal",
      "outputs": [
        {
          "internalType": "uint256",
          "name": "",
          "type": "uint256"
        }
      ],
      "stateMutability": "view",
      "type": "function"
    },
    {
      "inputs": [],
      "name": "reduce",
      "outputs": [],
      "stateMutability": "nonpayable",
      "type": "function"
    }
  ],
  "bytecode": "0x60806040526000805534801561001457600080fd5b506040516106243803806106248339818101604052810190610036919061016c565b806000819055506100866040518060400160405280601281526020017f6372656174652048656c6c6f20746f74616c00000000000000000000000000008152508261008c60201b6100c21760201c565b5061028e565b61012a82826040516024016100a29291906101dd565b6040516020818303038152906040527f9710a9d0000000000000000000000000000000000000000000000000000000007bffffffffffffffffffffffffffffffffffffffffffffffffffffffff19166020820180517bffffffffffffffffffffffffffffffffffffffffffffffffffffffff838183161783525050505061012e60201b60201c565b5050565b60008151905060006a636f6e736f6c652e6c6f679050602083016000808483855afa5050505050565b60008151905061016681610277565b92915050565b60006020828403121561017e57600080fd5b600061018c84828501610157565b91505092915050565b60006101a08261020d565b6101aa8185610218565b93506101ba818560208601610233565b6101c381610266565b840191505092915050565b6101d781610229565b82525050565b600060408201905081810360008301526101f78185610195565b905061020660208301846101ce565b9392505050565b600081519050919050565b600082825260208201905092915050565b6000819050919050565b60005b83811015610251578082015181840152602081019050610236565b83811115610260576000848401525b50505050565b6000601f19601f8301169050919050565b61028081610229565b811461028b57600080fd5b50565b6103878061029d6000396000f3fe608060405234801561001057600080fd5b50600436106100365760003560e01c806345219b0e1461003b578063eb59895d14610045575b600080fd5b610043610063565b005b61004d6100b9565b60405161005a9190610237565b60405180910390f35b6001600080828254610075919061026e565b925050819055507fb209c79af299ccf8d47cae365926f1d70a69df08e390a56e039cb107e9847829336000546040516100af9291906101de565b60405180910390a1565b60008054905090565b61015a82826040516024016100d8929190610207565b6040516020818303038152906040527f9710a9d0000000000000000000000000000000000000000000000000000000007bffffffffffffffffffffffffffffffffffffffffffffffffffffffff19166020820180517bffffffffffffffffffffffffffffffffffffffffffffffffffffffff838183161783525050505061015e565b5050565b60008151905060006a636f6e736f6c652e6c6f679050602083016000808483855afa5050505050565b610190816102a2565b82525050565b60006101a182610252565b6101ab818561025d565b93506101bb8185602086016102de565b6101c481610340565b840191505092915050565b6101d8816102d4565b82525050565b60006040820190506101f36000830185610187565b61020060208301846101cf565b9392505050565b600060408201905081810360008301526102218185610196565b905061023060208301846101cf565b9392505050565b600060208201905061024c60008301846101cf565b92915050565b600081519050919050565b600082825260208201905092915050565b6000610279826102d4565b9150610284836102d4565b92508282101561029757610296610311565b5b828203905092915050565b60006102ad826102b4565b9050919050565b600073ffffffffffffffffffffffffffffffffffffffff82169050919050565b6000819050919050565b60005b838110156102fc5780820151818401526020810190506102e1565b8381111561030b576000848401525b50505050565b7f4e487b7100000000000000000000000000000000000000000000000000000000600052601160045260246000fd5b6000601f19601f830116905091905056fea2646970667358221220aadda96c234a72a4566ec6be07a95fde0798d119517b0bb6ffa09c903bcfeac464736f6c63430008040033",
  "linkReferences": {},
  "deployedLinkReferences": {}
}