{
  "_format": "hh-sol-artifact-1",
  "contractName": "Hello",
  "sourceName": "contracts/Hello.sol",
  "abi": [
    {
      "inputs": [
        {
          "internalType": "uint256",
          "name": "_total",
          "type": "uint256"
        }
      ],
      "stateMutability": "nonpayable",
      "type": "constructor"
    },
    {
      "inputs": [],
      "name": "getHelloTotal",
      "outputs": [
        {
          "internalType": "uint256",
          "name": "",
          "type": "uint256"
        }
      ],
      "stateMutability": "view",
      "type": "function"
    },
    {
      "inputs": [],
      "name": "reduce",
      "outputs": [],
      "stateMutability": "nonpayable",
      "type": "function"
    }
  ],
  "bytecode": "0x60806040526000805534801561001457600080fd5b5060405161057f38038061057f8339818101604052810190610036919061016c565b806000819055506100866040518060400160405280601281526020017f6372656174652048656c6c6f20746f74616c00000000000000000000000000008152508261008c60201b6100871760201c565b5061028e565b61012a82826040516024016100a29291906101dd565b6040516020818303038152906040527f9710a9d0000000000000000000000000000000000000000000000000000000007bffffffffffffffffffffffffffffffffffffffffffffffffffffffff19166020820180517bffffffffffffffffffffffffffffffffffffffffffffffffffffffff838183161783525050505061012e60201b60201c565b5050565b60008151905060006a636f6e736f6c652e6c6f679050602083016000808483855afa5050505050565b60008151905061016681610277565b92915050565b60006020828403121561017e57600080fd5b600061018c84828501610157565b91505092915050565b60006101a08261020d565b6101aa8185610218565b93506101ba818560208601610233565b6101c381610266565b840191505092915050565b6101d781610229565b82525050565b600060408201905081810360008301526101f78185610195565b905061020660208301846101ce565b9392505050565b600081519050919050565b600082825260208201905092915050565b6000819050919050565b60005b83811015610251578082015181840152602081019050610236565b83811115610260576000848401525b50505050565b6000601f19601f8301169050919050565b61028081610229565b811461028b57600080fd5b50565b6102e28061029d6000396000f3fe608060405234801561001057600080fd5b50600436106100365760003560e01c806345219b0e1461003b578063eb59895d14610045575b600080fd5b610043610063565b005b61004d61007e565b60405161005a91906101c4565b60405180910390f35b600160008082825461007591906101fb565b92505081905550565b60008054905090565b61011f828260405160240161009d929190610194565b6040516020818303038152906040527f9710a9d0000000000000000000000000000000000000000000000000000000007bffffffffffffffffffffffffffffffffffffffffffffffffffffffff19166020820180517bffffffffffffffffffffffffffffffffffffffffffffffffffffffff8381831617835250505050610123565b5050565b60008151905060006a636f6e736f6c652e6c6f679050602083016000808483855afa5050505050565b6000610157826101df565b61016181856101ea565b9350610171818560208601610239565b61017a8161029b565b840191505092915050565b61018e8161022f565b82525050565b600060408201905081810360008301526101ae818561014c565b90506101bd6020830184610185565b9392505050565b60006020820190506101d96000830184610185565b92915050565b600081519050919050565b600082825260208201905092915050565b60006102068261022f565b91506102118361022f565b9250828210156102245761022361026c565b5b828203905092915050565b6000819050919050565b60005b8381101561025757808201518184015260208101905061023c565b83811115610266576000848401525b50505050565b7f4e487b7100000000000000000000000000000000000000000000000000000000600052601160045260246000fd5b6000601f19601f830116905091905056fea26469706673582212200ceb5b260197cf75d00371e2a229df7be5163233b76e4a132b4dbf462fcb183d64736f6c63430008040033",
  "linkReferences": {},
  "deployedLinkReferences": {}
}